:04000000020049327F
:01000B0032C2
:0100130032BA
:01001B0032B2
:0100230032AA
:01002B0032A2
:01003300329A
:01003B003292
:0300430002071C95
:0300A20002004613
:030046000200A510
:1000A5001200DC75821F1200F153925F53935F5368
:1000B50096FB5397FB1206FAD2EAD2AFE52A60FC0B
:1000C500C2B480FE22AE82AF83EE4F600900001EEF
:1000D500BEFF011F80F32275A15575A1AA74F855BD
:1000E500B94404F5B99000641200CA22AF829001A8
:1000F5003CC0071200CAD007DFF42275FA602275EA
:10010500FA0022E582FF70027F0CBF0800403FD253
:1001150000750801BF08028030BF09028026BF0AAA
:1001250002801CBF0B028012BF0C028008BF0D05A8
:1001350075FB04802E75FB08802975FB10802475DE
:10014500FB20801F75FB40801A75FB808015C2005F
:100155007407C39FF5F005F07403800225E0D5F020
:10016500FBF50822AE087F008E828F831200CA221B
:1001750053925F4393A05396FB439704D2B2758283
:10018500011200F1C2B27509FF2253925F53935FCA
:100195005396FB5397FB120104752B0022AF827E09
:1001A500007D00EF30E704D2958002C2958F04EC04
:1001B5002CFF8E04EC2CFE3096010ED297C007C0A2
:1001C50006C005120169C297120169D005D006D093
:1001D500070DBD080040CC8E82228582F930FBFDDB
:1001E50085F98222E52B7003752B0C74FF252B50A6
:1001F500513000031201007F03D2B2758201C0079E
:100205001200F1C2B275823E1200F17582AC120481
:10021500CF7582531204CF7582001204CFAE82755A
:100225008200C0061204CFD006D007BE53057582E2
:10023500008012DFC4120104152B852B82120108E0
:1002450080A975820122AEF08E04C313CC13CCE4D1
:10025500ECB50902801A8C0975824D1204CF75829E
:10026500001204CF8509821204CF7582001204CFD3
:1002750022AC82AD83AEF0FFC007C006C005C00446
:1002850012024BD0048C03530301EBC40354F8FB57
:1002950074204BF582C0041204CFD004D005D006DB
:1002A500D007EFC313EE13ED13F582C007C006C0E8
:1002B50005C0041204CFD004D005D006D007EDC385
:1002C50013CC13CC8C821204CF7582001204CF227A
:1002D500AC82AD83AEF0FFC007C006C005C00412F6
:1002E500024BD0048C03530301EBC40354F8FB7495
:1002F500404BF582C0041204CFD004D005D006D0FF
:1003050007EFC313EE13ED13F582C007C006C00552
:10031500C0041204CFD004D0058C028D03EBC313A7
:10032500CA13CA8A82C005C0041204CFD004D005FE
:10033500D006D007850A82C007C006C005C00412D2
:1003450004CFD004D005D006D007E50B7004F582A4
:10035500805F747FB50A0B75820F1200F1758200FC
:10036500804F7B1EEB60478C828D838EF0EFC0073C
:10037500C006C005C004C003120276AA82D003D00D
:1003850004D005D006D007BA7F02800575820080AB
:1003950020758201C007C006C005C004C003120055
:1003A500F1D003D004D005D006D0071B80B67582E6
:1003B5000122AC82AD83AEF0FFC007C006C005C008
:1003C5000412024B75824C1204CFD004D005D0061E
:1003D500D007EFC313EE13ED13F582C007C006C0B7
:1003E50005C0041204CFD004D0058C028D03EBC3E5
:1003F50013CA13CA8A82C005C0041204CF758200CD
:100405001204CFD004D005D006D00774FFB50C0B6D
:1004150075820F1200F1758200804F7B1EEB6047DD
:100425008C828D838EF0EFC007C006C005C004C066
:1004350003120276AA82D003D004D005D006D007D5
:10044500BAFF0280057582008020758201C007C051
:1004550006C005C004C0031200F1D003D004D005C6
:10046500D006D0071B80B675820122AE82AF837598
:1004750082A0C007C0061204CFD006D0078F82C065
:1004850007C0061204CFD006D0078E821204CF759E
:1004950082001204CF22AE82AF837582C0C007C02E
:1004A500061204CFD006D0078F82C007C0061204FB
:1004B500CFD006D0078E821204CF850D821204CFCD
:1004C50075821E1200F175820022AF823000078FFF
:1004D500821201DF80058F821201A222AE82AF83D4
:1004E5008E048F051EBEFF011FEC4D70F322A20185
:1004F5009295850E82850F831204E1D297A295927B
:1005050001850E82850F831204E1C297A201225351
:10051500927F4393A04392207F208F061FEE600BAE
:10052500D201C0071204F3D00780EF22AF827E000C
:10053500C201C007C0061204F3D006D0077D00EF44
:100545006206EF540124FF9201C007C006C00512E0
:1005550004F3D005D006D007EFC313FF0DBD080087
:1005650040DDEE540124FF92011204F3D20112047E
:10057500F3D2011204F3227F007EC08E051EED60CA
:100585000FD201C007C0061204F3D006D00740EB16
:10059500EE7019C201C0061204F3D0060EBE1A0091
:1005A50040F1D2011204F375820080697E007D005E
:1005B500EEC313FED201C007C006C0051204F3D076
:1005C50005D006D007500343068074805E62070D90
:1005D500BD080040DBD201C007C0061204F3D006F7
:1005E500D0075003630780EF601B7F00C201C0077F
:1005F5001204F3D0070FBF1A0040F1D2011204F321
:100605007582008010D201C0061204F3D2011204D3
:10061500F3D0068E8222AE82AF83758268C007C092
:1006250006120531D0068E82C00612053175826923
:10063500120531D006D0078F821205312212061B12
:10064500AD10AE11AF127C00C3EC9513502D758221
:1006550024C007C006C005C00412053112057CABD5
:1006650082D004D005D006D0078D828E838FF0EB23
:1006750012126AA3AD82AE830C80CD2212061BAD89
:1006850014AE15AF167C00C3EC951750677582F351
:10069500C007C006C005C00412053175821D1205CC
:1006A50031758264120531D004D005D006D0078D8E
:1006B500828E838FF0121285FBA3AD82AE838B826F
:1006C500C007C006C005C004120531D004D005D04E
:1006D50006D007758272C007C006C005C0041205A2
:1006E5003112057CE582D004D005D006D00720E77D
:1006F500E20C80932275E20075EB0075EA007E003E
:100705007F008FED75EC0075D40275E22975D181F6
:1007150075D8FF75E10722C021C0E0C0F0C082C0D6
:1007250083C007C006C005C004C003C002C001C025
:1007350000C0D075D0007F0020D90302122E743F6F
:1007450055D9FEFDBD000302102BBE2003020DDBB3
:10075500BE3002800302122C53DCF27408B5DB02B2
:100765008003020DC8900000E0FE8E22900001E09B
:10077500FE8E23900002E0FE8E24900003E0FE8EA4
:1007850025900004E0FE8E26900005E0FE8E279061
:100795000007E0FD7E00900006E0FC7B004206EBD2
:1007A50042058E288D29C2027F00E522FE54606035
:1007B500030209A6E523FD24F450030209A1ED2453
:1007C5000A83F582ED241083F583E4735BF9A11D9B
:1007D500A1CAE9A1D9E4698409080909090D07092C
:1007E50008080909AD25BD0102800FBD0202801769
:1007F500BD0302801FBD0F75806675377775381389
:100805007539807F12806875378975381375398019
:100815007F12805BAD24BD0002800ABD01028012FB
:10082500BD0239802A75379B7538137539807F0469
:10083500803D30030D75379F7538137539807F1CE2
:10084500802D7537BB7538137539807F48802075C5
:1008550037037538147539807F0E8013D202800FE7
:1008650075374F7538137539807F288002D2028F0E
:10087500047D00C3E5289CE5299D5004AF2880042C
:100885008C288D29EF24F750027F08753A00C3E5BF
:100895003A9F502AC007AB3A7C00AA37AD38AF392A
:1008A5008A828D838FF0121285FA0537E4B53702F7
:1008B50005388B828C83EAF0053AD00780D08F0506
:1008C500AB28AC297A00EBC39DFBEC9AFC8B288CFA
:1008D50029020DCA900000E52AF07F01020DCAE544
:1008E50024F52A600975EB0C75D412020DCA75EB57
:1008F50000020DCAEE541F701A7401B5241090132E
:1009050090E49330E503020DCAD202020DCAD20269
:10091500020DCAD202020DCAEE541F70347401B51D
:10092500242A901390E49330E51DE5A220E7FB759A
:10093500A15575A1AA75A9C143870275A15575A1D0
:10094500AA75A900020DCAD202020DCAD202020D71
:10095500CAD202020DCA900000E4F0900001F07FB7
:1009650002020DCAE5277012B5260A900000E4F0D0
:100975007F01020DCAD202020DCAD202020DCAE5DA
:10098500277014B5260CE5247003020DCAD20202A5
:100995000DCAD202020DCAD202020DCAD202020D3E
:1009A500CA530660BE40028003020DC4AE23BE01D9
:1009B500028068BE02028078BE0303020A41BE04BB
:1009C50003020A7ABE0503020B58BE0603020B6733
:1009D500BE0703020A7ABE0803020BBEBE09030264
:1009E5000BEABE0A03020BFCBE0B03020C09BE0C8C
:1009F50003020C3DBE0D03020C74BE0E03020C83F4
:100A0500BE0F03020C90BE1003020D0FBE40030281
:100A15000D32BE7F03020DA9020DC0852B82C007D2
:100A2500120108752C00C2B3120175D007020DCA58
:100A3500C00712018FD007D2B3020DCA85248212D6
:100A450004CFAE82900000EEF08525821204CFAE71
:100A550082900001EEF08526821204CFAE829000CE
:100A650002EEF08527821204CFAE82900003EEF0ED
:100A75007F04020DCAE52C7018AE25FDAB24FCEBF6
:100A85004205EC42068D2DEEF52E3395E0F52FF55A
:100A950030852831852932AD28AE29C3ED9408EE7D
:100AA500940040047F088002AF287404B5234C7578
:100AB5003A00C3E53A9F4003020B42C007AC3A7DBA
:100AC50000AA2DAB2EAE2FAF30052DE4B52D0C05AC
:100AD5002EB52E07052FB52F0205308A828B838E02
:100AE500F0EFC005C004120276AF82D004D0058CA9
:100AF500828D83EFF0053AD00780B7753A00C3E5DC
:100B05003A9F5039C007AC3A7D00AA2DAB2E052D72
:100B1500E4B52D0C052EB52E07052FB52F02053092
:100B25008A828B83C005C004120470AF82D004D0C2
:100B3500058C828D83EFF0053AD00780C18F06AC16
:100B450028AD297B00ECC39EFCED9BFD8C288D29EF
:100B5500020DCA1201E9AE82900000EEF07F01029B
:100B65000DCAE52C7018AE25FDAB24FCEB4205EC57
:100B750042068D2DEEF52E3395E0F52FF5308526C1
:100B850033753400740F5527F535AD275305F0E45B
:100B9500CDC4CD6DCD54F0CD6DFEAB33AC34ED2B66
:100BA500FDEE3CFE8D338E34E53530E0038533367E
:100BB500852831852932020DCAE52C7018AE25FD30
:100BC500AB24FCEB4205EC42068D2DEEF52E33955C
:100BD500E0F52FF530E4F533F534F5358528318525
:100BE5002932020DCA752C0185242D85252E8526D1
:100BF5002F852730020DCA85242B900000E4F07F55
:100C050001020DCAAE257D00AB247C00EB4205EC4C
:100C150042068D0E8E0F5396FB439704D2B2758212
:100C250003C0071200F1D2B2C2B37582101200F1EF
:100C3500120514D007020DCA7582C0C0071205310E
:100C450075820012053175820A1200F1D2B27582E1
:100C5500051200F1C2B27582051200F1D007539258
:100C65005F53935F5396FB5397FBD2B3020DCA12A2
:100C7500057CAE82900000EEF07F01020DCA85244E
:100C850082C007120531D007020DCAAE257D00AB23
:100C9500247C00EB4205EC42068D2DEEF52E3395B6
:100CA500E0F52FF530852831852932AD28AE298D1F
:100CB500038E04C3EB9408EC940040047F08800283
:100CC5008D07852D82852E8375100075110075128F
:100CD500008F13C007120642D0078F03E4FCFDFE08
:100CE500EB252DF52DEC352EF52EED352FF52FEECB
:100CF5003530F5308F06AC28AD297B00ECC39EFC62
:100D0500ED9BFD8C288D29020DCAAE257D00AB24F7
:100D15007C00EB4205EC42068D2DEEF52E3395E079
:100D2500F52FF530852831852932020DCA7407B5AE
:100D350026028003020DCA7537A5753812753980EC
:100D45007FAAAD28AE29C3ED94AAEE940050048D78
:100D55000780067528AA752900BF080040027F088C
:100D6500753A00C3E53A9F5026AC3A7D00AA37ABE9
:100D750038AE398A828B838EF0121285FA0537E4F4
:100D8500B5370205388C828D83EAF0053A80D48F19
:100D950006AC28AD297B00ECC39EFCED9BFD8C28A1
:100DA5008D2980219000007401F0900001E4F090FD
:100DB5000002F0900003F07F04800AD2028006D280
:100DC500028002D20230020675DCCF02122C8FDDC2
:100DD50075DCC002122CE522FF54606003020E6F21
:100DE500AE23BE05028068BE0677AD28AE298D0309
:100DF5008E04C3EB9408EC940040047C0880028DBB
:100E050004753A00C3E53A9C502AC004AB3A7D000C
:100E1500AA37AC38AE398A828C838EF0121285FAE5
:100E25000537E4B5370205388B828D83EAF0053A3C
:100E3500D00480D08C06AB28AD297A00EBC39EFB8D
:100E4500ED9AFD8B288D298CDD63DC4002122CE5A3
:100E5500E35480FE747F55244EF5E375DC020212DF
:100E65002C75DD0075DC0202122C530760BF4002B1
:100E7500800302122CAF23E4BF040104FE7014BFEB
:100E85000503020F65BF07028009BF4003020FC9B2
:100E9500021022AD28AF298D038F04C3EB9408EC13
:100EA500940040047C0880028D04EE6050753A0081
:100EB500C3E53A9C4003020F4AC004AD3A7E00AA3E
:100EC5002DAB2EAC2FAF30052DE4B52D0C052EB571
:100ED5002E07052FB52F0205308A828B838CF0EF04
:100EE500C006C005C004120276AF82D004D005D07A
:100EF500068D828E83EFF0053AD00480B3753A00F3
:100F0500C3E53A9C503FC004AD3A7E00AA2DAB2EF6
:100F1500AC2F052DE4B52D0C052EB52E07052FB5E7
:100F25002F0205308A828B83C006C005C0041204D7
:100F350070AF82D004D005D0068D828E83EFF00588
:100F45003AD00480BB8C07AD28AE297B00EDC39F4A
:100F5500FDEE9BFE8D288E298CDD63DC4002122C74
:100F6500AE28AF298E048F05C3EC9408ED9400409C
:100F7500047D0880028E05852D82852E83751000DF
:100F85007511007512008D13C005120642D0058D2E
:100F950003E4FCFEFFEB252DF52DEC352EF52EEEAD
:100FA500352FF52FEF3530F5308D07AC28AE297B81
:100FB50000ECC39FFCEE9BFE8C288E298DDD63DC47
:100FC5004002122C85283B74F8253B5003753B08DD
:100FD500E53B602D7E00C3EE953B50258E047D00DC
:100FE500AA37AB38AF398A828B838FF0121285FA14
:100FF5000537E4B5370205388C828D83EAF00E801B
:10100500D5AF3BAD28AE297C00EDC39FFDEE9CFE20
:101015008D288E29853BDD63DC4002122C75DD00B1
:1010250075DC0202122CE522FF54607008F5DD43E1
:10103500DC0202122C530760BF4002800302122C0F
:10104500AF23BF0602800FBF080302115EBF100366
:101055000211CD02122C20DE0302122CAE28AF297C
:101065008E048F05C374089CE49D50047D0880029E
:101075008E057F00C3EF9D4003021145E5334534DE
:1010850060478F82758300E0F50A750B00852D8218
:10109500852E83852FF0E530C007C0051202D5D017
:1010A50005D007D536448F82758300E0F50C852D74
:1010B50082852E83852FF0E530C007C0051203B762
:1010C500D005D00785333680218F82758300E0F502
:1010D5000A750B01852D82852E83852FF0E530C09D
:1010E50007C0051202D5D005D007153174FFB531FB
:1010F500021532E53145327031E53530E12CAC363B
:101105007E00ECB53306EEB53402801E8F82758302
:1011150000E0F50C852D82852E83852FF0E530C006
:1011250007C0051203B7D005D007052DE4B52D0C72
:10113500052EB52E07052FB52F0205300F021079A4
:10114500AE28AF297C00EEC39DFEEF9CFF8E288F55
:10115500298CDD63DC8002122C20DE0302122CAE0A
:1011650028AF298E048F05C374089CE49D50047D27
:101175000880028E057F00C3EF9D5039AC2DAE2E41
:101185008F82758300E0F50D8C828E83C007C005C4
:1011950012049BD005D007153174FFB53102153205
:1011A500052DE4B52D0C052EB52E07052FB52F02FF
:1011B50005300F80C2AE28AF297C00EEC39DFEEF3F
:1011C5009CFF8E288F29805F30DE5CAE28AF298E8C
:1011D500048F05C374089CE49D50047D0880028E2D
:1011E50005852D82852E83751400751500751600ED
:1011F5008D17C005120681D0058D03E4FCFEFFEBBB
:10120500252DF52DEC352EF52EEE352FF52FEF3559
:1012150030F530AE28AF29EEC39DFEEF9CFF8E283A
:101225008F298CDD63DC80C2D930D81675DC027558
:101235002B0075E300C2DAC2D9C2D8752A00A29183
:10124500920310DA0075D8FFD0D0D000D001D002BB
:10125500D003D004D005D006D007D083D082D0F0FB
:05126500D0E0D02132B1
:1012A5000A00000000000306AA0008000200000072
:1012B500A0001400030057494E555342000000009A
:1012C5000000000000008400040007002A0044001C
:1012D5006500760069006300650049006E007400D2
:1012E50065007200660061006300650047005500F7
:1012F500490044007300000050007B004300440097
:101305004200330042003500410044002D00320008
:101315003900330042002D0034003600360033001A
:101325002D0041004100330036002D003100410001
:1013350041004500340036003400360033003700E4
:10134500370036007D0000000000050F2800020769
:101355001002000000001C100500DF60DDD8894583
:10136500C74C9CD2659D9E648A9F00000306AA0017
:10137500400012011002FF000008C016DC0508013C
:101385000102000109021200010100A03209040056
:10139500000000000002040309041C037700770025
:1013A50077002E00660069007300630068006C001A
:1013B5002E006400650048037700770077002E0053
:1013C5006700690074006800750062002E00630004
:1013D5006F006D002F007500730062006D006100E5
:1013E5006E0031002F004300480035003500320003
:1013F5005F007500730062004100530050000E034A
:0C140500550053004200610073007000AD
:06007800E478FFF6D8FD5C
:100056007900E94400601B7A00901411780175A0BC
:1000660000E493F2A308B8000205A0D9F4DAF27509
:02007600A0FFE9
:10126A0020F71130F6138883A88220F509F6A8839F
:0B127A007583002280FEF280F5F02258
:10007E007800E84400600A790175A000E4F309D81D
:10008E00FC7800E84400600C7900900001E4F0A3D5
:04009E00D8FCD9FAB7
:0D00490075813B1212A1E5826003020046A2
:1012850020F71430F6148883A88220F507E6A88392
:1012950075830022E280F7E49322E0227582002222
:00000001FF
