:07003C00CFCCCFCECDCE22C8
:0E0F6600EF4E60090000EF1F70F61E80F322B0
:100F290075A15575A1AAE5B954F84404F5B97F64CA
:050F39007E00020F66BE
:0C0F7400AD077F3C7E01120F66DDF72206
:040FA60075FA602256
:040FAA00E4F5FA224E
:100CF700EF70027F0CEFC39408402FD203753101C8
:100D0700EF24F8602114601A14601314600C24FE99
:100D1700700475FB042275FB082275FB102275FB16
:100D2700202275FB402275FB8022C203C374079FF4
:0F0D3700FF7403A807088002C333D8FCF53122EC
:070F9F00AF317E00020F6676
:100EDF0053925F4393A05396FB439704D2B27F0183
:090EEF00120F74C2B27532FF2229
:100F530053925F53935F5396FB5397FB120FAAE48D
:030F6300F51D2257
:020003008F2E3E
:10000500E4F52FF530E52E30E704D2958002C29550
:10001500E52E25E0F52EE52F25E0F52F3096020596
:100025002FD297120F9FC297120F9F0530E530C34D
:06003500940840D1AF2F3A
:01003B0022A2
:080F97008FF930FBFDAFF922D8
:100CA200E51D7003751D0CE51DC39401404430031E
:100CB20003120FA6752403D2B27F01120F74C2B2BF
:100CC2007F3E120F747FAC120F497F53120F49E41B
:100CD200FF120F498F23E4FF120F49E523B4530398
:100CE2007F0022D524D1120FAA151DAF1D120CF7B9
:040CF20080B57F0149
:010CF60022DB
:100E68007811120B8FE5326F60168F327F4D120F9B
:100E780049E4FF120F49AF32120F49E4FF120F493C
:010E88002247
:100DC3008F2D8E2C8D2B8C2A120E68E52D5401FF4E
:100DD300E4FEFDFC7803120BA2EF4420FFEC120F9C
:100DE300497809120F3E7801120F3EE4FF120F49B2
:010DF30022DD
:080AEA008F268E258D248C233C
:100AF200120E68E5265401FFE4FEFDFC7803120B9A
:100B0200A2EF4440FFEC120F49AF26AE25AD24AC54
:100B1200237809120B8F120F49AF26AE25AD24ACF4
:100B2200237801120B8F120F49AF27120F49E528C4
:100B32007002FF22E527B47F087F0F120F747F0037
:100B42002275291EAF26AE25AD24AC23120DC3EFAC
:100B5200647F60037F00227F01120F74D529E57F35
:010B62000191
:010B6300226F
:080C40008F268E258D248C23E4
:100C4800120E687F4C120F49AF26AE25AD24AC2397
:100C58007809120B8F120F49AF26AE25AD24AC23AD
:100C68007801120B8F120F49E4FF120F49E527B4E0
:100C7800FF087F0F120F747F002275281EAF26AE63
:100C880025AD24AC23120DC3EFF460037F00227F4F
:090C980001120F74D528E67F015A
:010CA1002230
:100EC5008E238F247FA0120F49E523FF120F49AF10
:0A0ED50024120F49E4FF120F492216
:100E22008E238F248D257FC0120F49E523FF120FD9
:100E320049AF24120F49AF25120F497F1E120F74BA
:030E42007F00220C
:0B0F3E00AF2DAE2CAD2BAC2A120B8F98
:0A0F4900300303020F971200032289
:0B0F8C00EF1FAC0670011E4C70F62237
:100EA800A2049295AF34AE33120F8CD297A29592CA
:0D0EB80004AF34AE33120F8CC297A2042297
:100EF8007D2053927F4393A0439220AF051DEF605E
:080F080007D204120EA880F3C9
:010F100022BE
:020DF400AD0749
:100DF600E4FBC204120EA8E4FAED6203ED139204BA
:100E0600120EA8EDC313FD0ABA08EEEB13920412F4
:0C0E16000EA8D204120EA8D204020EA8EE
:100BD500E4FB7AC0AF021AEF6007D204120EA840F8
:100BE500F3EA700EC204120EA80AEAC3941A40F47E
:100BF5008034E4FAEDC313FDD204120EA85003436A
:100C05000580ED548062030ABA08E9D204120EA8E1
:100C15005003630380EB6016E4FAC204120EA80ABF
:100C2500EAC3941A40F4D204120EA87F0022D2041B
:0A0C3500120EA8D204120EA8AF059B
:010C3F002292
:100F11008F828E837F68120DF4AF82120DF47F6988
:080F2100120DF4AF83020DF480
:060D8E008B258A2689274F
:100D9400120F11E4F529E529C3952850217F241267
:100DA4000DF4120BD5AB25AA26A927EF120B7D74DF
:0E0DB400012527F527E43526F526052980D8E8
:010DC200220E
:060D46008B258A26892797
:100D4C00120F11E4F529E529C3952850347FF312CD
:100D5C000DF47F1D120DF47F64120DF4AB250527E5
:100D6C00E527AA267002052614F9120B64FF120D52
:100D7C00F47F72120DF4120BD5EF20E7F4052980E5
:010D8C00C5A1
:010D8D002243
:10097E000A00000000000306AA00080002000000A2
:10098E00A0001400030057494E55534200000000CA
:10099E000000000000008400040007002A0044004C
:1009AE006500760069006300650049006E00740002
:1009BE006500720066006100630065004700550027
:1009CE00490044007300000050007B0043004400C7
:1009DE004200330042003500410044002D00320039
:1009EE003900330042002D0034003600360033004B
:1009FE002D0041004100330036002D003100410032
:100A0E004100450034003600340036003300370014
:100A1E00370036007D0000000000050F2800020799
:100A2E001002000000001C100500DF60DDD88945B3
:100A3E00C74C9CD2659D9E648A9F00000306AA0047
:100A4E00400012011002FF000008C016DC0508016C
:100A5E000102000109021200010100A03209040086
:100A6E00000000000002040309041C037700770055
:100A7E0077002E00660069007300630068006C004A
:100A8E002E006400650048037700770077002E0083
:100A9E006700690074006800750062002E00630034
:100AAE006F006D002F007500730062006D00610015
:100ABE006E0031002F004300480035003500320033
:100ACE005F007500730062004100530050000E037A
:0C0ADE00550053004200610073007000DE
:100E8900E4F5E2F5EBF5EA7400F5ED7400F5EC75BF
:0F0E9900D40275E22975D18175D8FF75E1072262
:0300430002004672
:10004600C0E0C0F0C083C082C0D075D000C000C080
:0D00560001C002C003C004C005C006C00701
:1000630075220020D90302093DE5D9543F700302EC
:10007300076F24E070030205D524F0600302093BF7
:1000830053DCF2E5DB640860030205C1900000E085
:10009300F510A3E0F511A3E0F512A3E0F513A3E037
:1000A300F514A3E0F515900007E0FE900006E0FDCF
:1000B300EEF516EDF517C201752200E510546060E8
:1000C3000302029CE511B40C004003020297900066
:1000D300D8F82828730202530201EF0202970202A2
:1000E300140202970205C30200FC0202970201D127
:1000F3000201D9020260020279E51324FE6016149C
:10010300602124F46068240E70727508FF75090A73
:10011300750A5080097508FF75090A750A62752208
:1001230012805BE5121460151460312402703B7574
:1001330008FF75090A750A74752204804130000EA0
:100143007508FF75090A750A7875221C80307508D1
:10015300FF75090A750A9475224880227508FF7590
:10016300090A750ADC75220E8014D2018010750805
:10017300FF75090A750A287522288002D201AF2269
:100183007E00C3E5179FE5169E5005851722800460
:100193008E168F17E522D394084003752208752124
:1001A30000E521C395225023AB08050AE50AAA09F5
:1001B3007002050914F9120B64FF74002521F582FE
:1001C300E43400F583EFF0052180D6020598900012
:1001D30000E50F0204B085120FE50F600975EB0C03
:1001E30075D4120205C375EB000205C3E510541F55
:1001F300701AE512B40110900A69E49330E5030222
:1002030005C3D2010205C3D2010205C3D20102050F
:10021300C3E510541F7034E51264017029900A6914
:100223009330E51DE5A220E7FB75A15575A1AA75DD
:10023300A9C143870275A15575A1AA75A900020535
:10024300C3D2010205C3D2010205C3D2010205C311
:10025300900000E4F0A3F07522020205C3E51570D7
:1002630010E5147007900000E40204B0D201020507
:10027300C3D2010205C3E5157015E514700CE51230
:1002830070030205C3D2010205C3D2010205C3D222
:10029300010205C3D2010205C3E510546064406046
:1002A300030205BDE51124C0700302053724C170A4
:1002B300030205A7247EB4100040030205B990028F
:1002C300CF75F003A4C58325F0C583730202FF0233
:1002D300030F0203170203410203BB0203C5020318
:1002E3004102040A02042902044E02045702047B59
:1002F3000204A90204B70204BF02051FAF1D120CBA
:10030300F7751C00C2B3120EDF0205C3120F53D2DE
:10031300B30205C3AF12120F49900000EFF0AF1301
:10032300120F49900001EFF0AF14120F4990000231
:10033300EFF0AF15120F49900003EF0205B3E51C70
:10034300700FE513FEE512FFE48F0E8E0DF50CF52D
:100353000B851618851719C3E5179408E51694003D
:1003630040057522088003851722E511B40423751F
:100373002100E521C39522503C780B120BB5120DD9
:10038300C374002521F582E43400F583EFF00521E1
:1003930080E0752100E521C395225019780B120BDB
:1003A300B5120EC574002521F582E43400F583EF00
:1003B300F0052180E0020598120CA2900000EF02E4
:1003C30004B0E51C700FE513FEE512FFE48F0E8EFB
:1003D3000DF50CF50B751E0085141FE515540FF56F
:1003E3001AE51554F0C4F8540FC868FFE4C454F078
:1003F30048FEEF251FF51FEE351EF51EE51A30E00A
:1004030022851F1B02052EE51C700FE513FEE51266
:10041300FFE48F0E8E0DF50CF50B751E00751F0096
:10042300751A0002052E751C0185150E85140D85A0
:10043300130C85120BAF0EAE0DAD0CAC0B12003CC2
:100443008F0E8E0D8D0C8C0B0205C385121D900033
:1004530000E48059E513F533E512F5345396FB4375
:100463009704D2B27F03120F74D2B2C2B37F1012B9
:100473000F74120EF80205C37FC0120DF4E4FF12CD
:100483000DF47F0A120F74D2B27F05120F74C2B239
:100493007F05120F7453925F53935F5396FB5397E9
:1004A300FBD2B30205C3120BD5900000EFF0752207
:1004B300010205C3AF12120DF40205C3E513FEE5F5
:1004C30012FFE48F0E8E0DF50CF50B8516188517AC
:1004D30019C3E5179408E5169400400575220880B2
:1004E30003851722AE0DAF0E7B017A0079008522BA
:1004F30028120D8EE4FCFDFEE50E2522F50EEE35E9
:100503000DF50DED350CF50CEC350BF50BC3E517BF
:100513009522F517E5169EF5160205C3E513FEE5CC
:1005230012FFE48F0E8E0DF50CF50B85161885174B
:10053300190205C3E514640760030205C37508FFC8
:10054300750909750A7E7522AAAF22FEC3E5179FB6
:10055300E5169E500585172280048E168F17E52217
:10056300C394084003752208752100E521C3952231
:100573005023AB08050AE50AAA097002050914F914
:10058300120B64FF74002521F582E43400F583EF38
:10059300F0052180D6C3E5179522F517E5169400DB
:1005A300F516801C9000007401F0A3E4F0A3F0A3FF
:1005B300F0752204800AD2018006D2018002D201A2
:1005C30030010675DCCF02093B8522DD75DCC002F4
:1005D300093BE5105460FF7068E51124FB604D147E
:1005E3007059C3E5179408E5169400400575220871
:1005F3008003851722752100E521C395225023AB83
:1006030008050AE50AAA097002050914F9120B6420
:10061300FE74002521F582E43400F583EEF0052114
:1006230080D6E522FDC3E5179D020755E512547FE9
:10063300FEE5E354804EF5E302076975DD0002072A
:1006430069EF6440600302093BE51124FB607824F1
:10065300FE600E24C77003020712243C60030207E6
:1006630066C3E5179408E5169400400575220880D3
:1006730003851722E511B40423752100E521C395F1
:1006830022503C780B120BB5120DC374002521F5D3
:1006930082E43400F583EFF0052180E0752100E565
:1006A30021C395225019780B120BB5120EC5740095
:1006B3002521F582E43400F583EFF0052180E0C3C2
:1006C300E5179522020755C3E5179408E51694002C
:1006D30040057522088003851722AE0DAF0E7B01FE
:1006E3007A007900852228120D8EE4FCFDFEE50ECA
:1006F3002522F50EEE350DF50DED350CF50CEC352B
:100703000BF50BC3E5179522F517E5169E80498572
:100713001722E522C394084003752208E522602DC1
:10072300752100E521C395225023AB08050AE50A8C
:10073300AA097002050914F9120B64FF740025213C
:10074300F582E43400F583EFF0052180D6C3E51785
:100753009522F517E5169400F5168522DD63DC4036
:1007630002093B75DD0075DC0202093BE5105460AC
:10077300FF7008F5DD43DC0202093BEF64406003D0
:1007830002093BE51124F8700302088324F870037F
:100793000208EA240A600302093B20DE0302093B44
:1007A300D3E5179408E516940040057522088003E5
:1007B300851722752100E521C395224003020875A0
:1007C300E51F451E6040AF0EAE0DAD0CAC0B7400C3
:1007D3002521F582E43400F583E0F527752800121E
:1007E3000AEA151BE51B703AAF0EAE0DAD0CAC0B50
:1007F30074002521F582E43400F583E0F527120C1B
:1008030040851F1B801CAF0EAE0DAD0CAC0B7400EE
:100813002521F582E43400F583E0F52775280112DC
:100823000AEAE519151970021518E5194518702813
:10083300E51A30E123E51B651F7002E51E6019AF61
:100843000EAE0DAD0CAC0B74002521F582E4340023
:10085300F583E0F527120C40E50E2401F50EE4358F
:100863000DF50DE4350CF50CE4350BF50B05210204
:1008730007B9C3E5179522F517E516940002093366
:1008830020DE0302093BD3E5179408E516940040E4
:10089300057522088003851722752100E521C3957C
:1008A300225035AE0DAF0E74002521F582E43400DD
:1008B300F583E0FD120E22E519151970021518E5EE
:1008C3000E2401F50EE4350DF50DE4350CF50CE4BD
:1008D300350BF50B052180C4C3E5179522F517E504
:1008E300169400F516805130DE4ED3E5179408E5D3
:1008F30016940040057522088003851722AE0DAFBC
:100903000E7B017A007900852228120D46E4FCFD56
:10091300FEE50E2522F50EEE350DF50DED350CF544
:100923000CEC350BF50BC3E5179522F517E5169E71
:10093300F51675DD0063DC80C2D930D81B75DC0287
:10094300751D00A291B3920275E300C2DAC2D9C247
:10095300D8750F00A291920030DA02C2DA75D8FF7F
:10096300D007D006D005D004D003D002D001D000E8
:0B097300D0D0D082D083D0F0D0E03292
:100E4500120F297F1F120F7453925F53935F5396AE
:100E5500FB5397FB120E89D2EAD2AFE50F60FCC2B5
:030E6500B480FE58
:03000000020F806C
:0C0F8000787FE4F6D8FD758134020E4540
:100B6400BB010689828A83E0225002E722BBFE028F
:090B7400E32289828A83E49322C2
:100B7D00BB010689828A83F0225002F722BBFE0157
:020B8D00F32251
:100B8F00E8600FECC313FCED13FDEE13FEEF13FF44
:030B9F00D8F12268
:100BA200E8600FEFC333FFEE33FEED33FDEC33FCB1
:030BB200D8F12255
:100BB5007401FF3395E0FEFDFC080808E6CF2FF62B
:100BC50018E6CE3EF618E6CD3DF618E6CC3CF62204
:00000001FF
